{
  "_format": "hh-sol-artifact-1",
  "contractName": "WavePortal",
  "sourceName": "contracts/WavePortal.sol",
  "abi": [
    {
      "inputs": [],
      "stateMutability": "payable",
      "type": "constructor"
    },
    {
      "anonymous": false,
      "inputs": [
        {
          "components": [
            {
              "internalType": "address",
              "name": "waver",
              "type": "address"
            },
            {
              "internalType": "uint256",
              "name": "waves",
              "type": "uint256"
            }
          ],
          "indexed": false,
          "internalType": "struct WavePortal.TopWaver",
          "name": "topWaver",
          "type": "tuple"
        }
      ],
      "name": "NewTopWaver",
      "type": "event"
    },
    {
      "anonymous": false,
      "inputs": [
        {
          "indexed": true,
          "internalType": "address",
          "name": "from",
          "type": "address"
        },
        {
          "indexed": false,
          "internalType": "uint256",
          "name": "timestamp",
          "type": "uint256"
        },
        {
          "indexed": false,
          "internalType": "string",
          "name": "message",
          "type": "string"
        }
      ],
      "name": "NewWave",
      "type": "event"
    },
    {
      "inputs": [],
      "name": "getAllWaves",
      "outputs": [
        {
          "components": [
            {
              "internalType": "address",
              "name": "waver",
              "type": "address"
            },
            {
              "internalType": "string",
              "name": "message",
              "type": "string"
            },
            {
              "internalType": "uint256",
              "name": "timestamp",
              "type": "uint256"
            }
          ],
          "internalType": "struct WavePortal.Wave[]",
          "name": "",
          "type": "tuple[]"
        }
      ],
      "stateMutability": "view",
      "type": "function"
    },
    {
      "inputs": [],
      "name": "getLastWavedAtTimestamp",
      "outputs": [
        {
          "internalType": "uint256",
          "name": "",
          "type": "uint256"
        }
      ],
      "stateMutability": "view",
      "type": "function"
    },
    {
      "inputs": [],
      "name": "getTotalWaves",
      "outputs": [
        {
          "internalType": "uint256",
          "name": "",
          "type": "uint256"
        }
      ],
      "stateMutability": "view",
      "type": "function"
    },
    {
      "inputs": [
        {
          "internalType": "address",
          "name": "",
          "type": "address"
        }
      ],
      "name": "lastWavedAt",
      "outputs": [
        {
          "internalType": "uint256",
          "name": "",
          "type": "uint256"
        }
      ],
      "stateMutability": "view",
      "type": "function"
    },
    {
      "inputs": [
        {
          "internalType": "string",
          "name": "_message",
          "type": "string"
        }
      ],
      "name": "wave",
      "outputs": [],
      "stateMutability": "nonpayable",
      "type": "function"
    }
  ],
  "bytecode": "0x60806040526200004f6040518060400160405280600e81526020017f4275656e6173206e6f63686573210000000000000000000000000000000000008152506200005560201b620008f01760201c565b620001e9565b620000f5816040516024016200006c919062000162565b6040516020818303038152906040527f41304fac000000000000000000000000000000000000000000000000000000007bffffffffffffffffffffffffffffffffffffffffffffffffffffffff19166020820180517bffffffffffffffffffffffffffffffffffffffffffffffffffffffff8381831617835250505050620000f860201b60201c565b50565b60008151905060006a636f6e736f6c652e6c6f679050602083016000808483855afa5050505050565b60006200012e8262000186565b6200013a818562000191565b93506200014c818560208601620001a2565b6200015781620001d8565b840191505092915050565b600060208201905081810360008301526200017e818462000121565b905092915050565b600081519050919050565b600082825260208201905092915050565b60005b83811015620001c2578082015181840152602081019050620001a5565b83811115620001d2576000848401525b50505050565b6000601f19601f8301169050919050565b61161180620001f96000396000f3fe608060405234801561001057600080fd5b50600436106100575760003560e01c8063449d46c01461005c5780638132efef146100785780639a2cdc0814610096578063a42a4663146100b4578063bd43a908146100e4575b600080fd5b61007660048036038101906100719190610cd5565b610102565b005b610080610737565b60405161008d91906110f7565b60405180910390f35b61009e61077e565b6040516100ab91906110f7565b60405180910390f35b6100ce60048036038101906100c99190610cac565b610787565b6040516100db91906110f7565b60405180910390f35b6100ec61079f565b6040516100f99190610f85565b60405180910390f35b42601e600660003373ffffffffffffffffffffffffffffffffffffffff1673ffffffffffffffffffffffffffffffffffffffff1681526020019081526020016000205461014f9190611209565b1061018f576040517f08c379a0000000000000000000000000000000000000000000000000000000008152600401610186906110bc565b60405180910390fd5b42600660003373ffffffffffffffffffffffffffffffffffffffff1673ffffffffffffffffffffffffffffffffffffffff1681526020019081526020016000208190555060016000808282546101e59190611209565b9250508190555060018060003373ffffffffffffffffffffffffffffffffffffffff1673ffffffffffffffffffffffffffffffffffffffff168152602001908152602001600020600082825461023b9190611209565b925050819055506000600160003373ffffffffffffffffffffffffffffffffffffffff1673ffffffffffffffffffffffffffffffffffffffff168152602001908152602001600020549050600060036001015414806102fb57503373ffffffffffffffffffffffffffffffffffffffff16600360000160009054906101000a900473ffffffffffffffffffffffffffffffffffffffff1673ffffffffffffffffffffffffffffffffffffffff16141580156102fa575080600360010154105b5b156103c55733600360000160006101000a81548173ffffffffffffffffffffffffffffffffffffffff021916908373ffffffffffffffffffffffffffffffffffffffff1602179055508060036001018190555061038c6040518060400160405280600e81526020017f4e657720746f70207761766572210000000000000000000000000000000000008152506108f0565b7f9b2908618ae94b0618ee744ba3117a9e1c17db3592f444110441ca02870cffa360036040516103bc91906110dc565b60405180910390a15b6104626040518060600160405280602b81526020016115b1602b9139338360018514610426576040518060400160405280600581526020017f74696d657300000000000000000000000000000000000000000000000000000081525061045d565b6040518060400160405280600481526020017f74696d65000000000000000000000000000000000000000000000000000000008152505b610989565b600260405180606001604052803373ffffffffffffffffffffffffffffffffffffffff16815260200184815260200142815250908060018154018082558091505060019003906000526020600020906003020160009091909190915060008201518160000160006101000a81548173ffffffffffffffffffffffffffffffffffffffff021916908373ffffffffffffffffffffffffffffffffffffffff1602179055506020820151816001019080519060200190610521929190610b8c565b506040820151816002015550506000606460055442446105419190611209565b61054b9190611209565b610555919061139e565b90506105966040518060400160405280601681526020017f52616e646f6d20232067656e6572617465643a2025730000000000000000000081525082610a2b565b8060058190555060328110156106e2576105e56040518060400160405280600781526020017f257320776f6e210000000000000000000000000000000000000000000000000081525033610ac7565b6000655af3107a4000905047811115610633576040517f08c379a000000000000000000000000000000000000000000000000000000000815260040161062a9061107c565b60405180910390fd5b60003373ffffffffffffffffffffffffffffffffffffffff168260405161065990610f70565b60006040518083038185875af1925050503d8060008114610696576040519150601f19603f3d011682016040523d82523d6000602084013e61069b565b606091505b50509050806106df576040517f08c379a00000000000000000000000000000000000000000000000000000000081526004016106d69061109c565b60405180910390fd5b50505b3373ffffffffffffffffffffffffffffffffffffffff167f5f7e16dc676677766a70e9c5628aa6c54ddb8b6e5188e2ae1e1f17f1ffbea716428560405161072a929190611112565b60405180910390a2505050565b6000600660003373ffffffffffffffffffffffffffffffffffffffff1673ffffffffffffffffffffffffffffffffffffffff16815260200190815260200160002054905090565b60008054905090565b60066020528060005260406000206000915090505481565b60606002805480602002602001604051908101604052809291908181526020016000905b828210156108e757838290600052602060002090600302016040518060600160405290816000820160009054906101000a900473ffffffffffffffffffffffffffffffffffffffff1673ffffffffffffffffffffffffffffffffffffffff1673ffffffffffffffffffffffffffffffffffffffff16815260200160018201805461084c90611307565b80601f016020809104026020016040519081016040528092919081815260200182805461087890611307565b80156108c55780601f1061089a576101008083540402835291602001916108c5565b820191906000526020600020905b8154815290600101906020018083116108a857829003601f168201915b50505050508152602001600282015481525050815260200190600101906107c3565b50505050905090565b610986816040516024016109049190610fa7565b6040516020818303038152906040527f41304fac000000000000000000000000000000000000000000000000000000007bffffffffffffffffffffffffffffffffffffffffffffffffffffffff19166020820180517bffffffffffffffffffffffffffffffffffffffffffffffffffffffff8381831617835250505050610b63565b50565b610a25848484846040516024016109a39493929190610ff9565b6040516020818303038152906040527f4c55f234000000000000000000000000000000000000000000000000000000007bffffffffffffffffffffffffffffffffffffffffffffffffffffffff19166020820180517bffffffffffffffffffffffffffffffffffffffffffffffffffffffff8381831617835250505050610b63565b50505050565b610ac38282604051602401610a4192919061104c565b6040516020818303038152906040527f9710a9d0000000000000000000000000000000000000000000000000000000007bffffffffffffffffffffffffffffffffffffffffffffffffffffffff19166020820180517bffffffffffffffffffffffffffffffffffffffffffffffffffffffff8381831617835250505050610b63565b5050565b610b5f8282604051602401610add929190610fc9565b6040516020818303038152906040527f319af333000000000000000000000000000000000000000000000000000000007bffffffffffffffffffffffffffffffffffffffffffffffffffffffff19166020820180517bffffffffffffffffffffffffffffffffffffffffffffffffffffffff8381831617835250505050610b63565b5050565b60008151905060006a636f6e736f6c652e6c6f679050602083016000808483855afa5050505050565b828054610b9890611307565b90600052602060002090601f016020900481019282610bba5760008555610c01565b82601f10610bd357805160ff1916838001178555610c01565b82800160010185558215610c01579182015b82811115610c00578251825591602001919060010190610be5565b5b509050610c0e9190610c12565b5090565b5b80821115610c2b576000816000905550600101610c13565b5090565b6000610c42610c3d84611167565b611142565b905082815260208101848484011115610c5a57600080fd5b610c658482856112c5565b509392505050565b600081359050610c7c81611599565b92915050565b600082601f830112610c9357600080fd5b8135610ca3848260208601610c2f565b91505092915050565b600060208284031215610cbe57600080fd5b6000610ccc84828501610c6d565b91505092915050565b600060208284031215610ce757600080fd5b600082013567ffffffffffffffff811115610d0157600080fd5b610d0d84828501610c82565b91505092915050565b6000610d228383610f02565b905092915050565b610d3381611289565b82525050565b610d4281611289565b82525050565b6000610d53826111a8565b610d5d81856111cb565b935083602082028501610d6f85611198565b8060005b85811015610dab5784840389528151610d8c8582610d16565b9450610d97836111be565b925060208a01995050600181019050610d73565b50829750879550505050505092915050565b6000610dc8826111b3565b610dd281856111e7565b9350610de28185602086016112d4565b610deb8161148b565b840191505092915050565b6000610e01826111b3565b610e0b81856111f8565b9350610e1b8185602086016112d4565b610e248161148b565b840191505092915050565b6000610e3c6034836111f8565b9150610e47826114a9565b604082019050919050565b6000610e5f6027836111f8565b9150610e6a826114f8565b604082019050919050565b6000610e826029836111f8565b9150610e8d82611547565b604082019050919050565b6000610ea56000836111dc565b9150610eb082611596565b600082019050919050565b604082016000808301549050610ed081611339565b610edd6000860182610d2a565b5060018301549050610eee81611353565b610efb6020860182610f52565b5050505050565b6000606083016000830151610f1a6000860182610d2a565b5060208301518482036020860152610f328282610dbd565b9150506040830151610f476040860182610f52565b508091505092915050565b610f5b816112bb565b82525050565b610f6a816112bb565b82525050565b6000610f7b82610e98565b9150819050919050565b60006020820190508181036000830152610f9f8184610d48565b905092915050565b60006020820190508181036000830152610fc18184610df6565b905092915050565b60006040820190508181036000830152610fe38185610df6565b9050610ff26020830184610d39565b9392505050565b600060808201905081810360008301526110138187610df6565b90506110226020830186610d39565b61102f6040830185610f61565b81810360608301526110418184610df6565b905095945050505050565b600060408201905081810360008301526110668185610df6565b90506110756020830184610f61565b9392505050565b6000602082019050818103600083015261109581610e2f565b9050919050565b600060208201905081810360008301526110b581610e52565b9050919050565b600060208201905081810360008301526110d581610e75565b9050919050565b60006040820190506110f16000830184610ebb565b92915050565b600060208201905061110c6000830184610f61565b92915050565b60006040820190506111276000830185610f61565b81810360208301526111398184610df6565b90509392505050565b600061114c61115d565b9050611158828261136d565b919050565b6000604051905090565b600067ffffffffffffffff8211156111825761118161145c565b5b61118b8261148b565b9050602081019050919050565b6000819050602082019050919050565b600081519050919050565b600081519050919050565b6000602082019050919050565b600082825260208201905092915050565b600081905092915050565b600082825260208201905092915050565b600082825260208201905092915050565b6000611214826112bb565b915061121f836112bb565b9250827fffffffffffffffffffffffffffffffffffffffffffffffffffffffffffffffff03821115611254576112536113cf565b5b828201905092915050565b600073ffffffffffffffffffffffffffffffffffffffff82169050919050565b6000819050919050565b60006112948261129b565b9050919050565b600073ffffffffffffffffffffffffffffffffffffffff82169050919050565b6000819050919050565b82818337600083830152505050565b60005b838110156112f25780820151818401526020810190506112d7565b83811115611301576000848401525b50505050565b6000600282049050600182168061131f57607f821691505b602082108114156113335761133261142d565b5b50919050565b600061134c6113478361149c565b61125f565b9050919050565b60006113666113618361149c565b61127f565b9050919050565b6113768261148b565b810181811067ffffffffffffffff821117156113955761139461145c565b5b80604052505050565b60006113a9826112bb565b91506113b4836112bb565b9250826113c4576113c36113fe565b5b828206905092915050565b7f4e487b7100000000000000000000000000000000000000000000000000000000600052601160045260246000fd5b7f4e487b7100000000000000000000000000000000000000000000000000000000600052601260045260246000fd5b7f4e487b7100000000000000000000000000000000000000000000000000000000600052602260045260246000fd5b7f4e487b7100000000000000000000000000000000000000000000000000000000600052604160045260246000fd5b6000601f19601f8301169050919050565b60008160001c9050919050565b7f547279696e6720746f207769746864726177206d6f7265206d6f6e657920746860008201527f616e2074686520636f6e7472616374206861732e000000000000000000000000602082015250565b7f4661696c656420746f207769746864726177206d6f6e65792066726f6d20636f60008201527f6e74726163742e00000000000000000000000000000000000000000000000000602082015250565b7f4d7573742077616974203330207365636f6e6473206265666f7265207761766960008201527f6e6720616761696e2e0000000000000000000000000000000000000000000000602082015250565b50565b6115a281611289565b81146115ad57600080fd5b5056fe25732068617320776176656421205468657920686176652077616976656420257320257320736f20666172a26469706673582212203a9e56b4404842dbc8f4153f0b44b0966f32ff38172ba9be6121911be5241a6064736f6c63430008040033",
  "linkReferences": {},
  "deployedLinkReferences": {}
}