{
  "_format": "hh-sol-artifact-1",
  "contractName": "WavePortal",
  "sourceName": "contracts/WavePortal.sol",
  "abi": [
    {
      "inputs": [],
      "stateMutability": "payable",
      "type": "constructor"
    },
    {
      "anonymous": false,
      "inputs": [
        {
          "components": [
            {
              "internalType": "address",
              "name": "waver",
              "type": "address"
            },
            {
              "internalType": "uint256",
              "name": "waves",
              "type": "uint256"
            }
          ],
          "indexed": false,
          "internalType": "struct WavePortal.TopWaver",
          "name": "topWaver",
          "type": "tuple"
        }
      ],
      "name": "NewTopWaver",
      "type": "event"
    },
    {
      "anonymous": false,
      "inputs": [
        {
          "indexed": true,
          "internalType": "address",
          "name": "from",
          "type": "address"
        },
        {
          "indexed": false,
          "internalType": "uint256",
          "name": "timestamp",
          "type": "uint256"
        },
        {
          "indexed": false,
          "internalType": "string",
          "name": "message",
          "type": "string"
        }
      ],
      "name": "NewWave",
      "type": "event"
    },
    {
      "inputs": [],
      "name": "getAllWaves",
      "outputs": [
        {
          "components": [
            {
              "internalType": "address",
              "name": "waver",
              "type": "address"
            },
            {
              "internalType": "string",
              "name": "message",
              "type": "string"
            },
            {
              "internalType": "uint256",
              "name": "timestamp",
              "type": "uint256"
            }
          ],
          "internalType": "struct WavePortal.Wave[]",
          "name": "",
          "type": "tuple[]"
        }
      ],
      "stateMutability": "view",
      "type": "function"
    },
    {
      "inputs": [],
      "name": "getLastWavedAtTimestamp",
      "outputs": [
        {
          "internalType": "uint256",
          "name": "",
          "type": "uint256"
        }
      ],
      "stateMutability": "view",
      "type": "function"
    },
    {
      "inputs": [],
      "name": "getTopWaver",
      "outputs": [
        {
          "components": [
            {
              "internalType": "address",
              "name": "waver",
              "type": "address"
            },
            {
              "internalType": "uint256",
              "name": "waves",
              "type": "uint256"
            }
          ],
          "internalType": "struct WavePortal.TopWaver",
          "name": "",
          "type": "tuple"
        }
      ],
      "stateMutability": "view",
      "type": "function"
    },
    {
      "inputs": [],
      "name": "getTotalWaves",
      "outputs": [
        {
          "internalType": "uint256",
          "name": "",
          "type": "uint256"
        }
      ],
      "stateMutability": "view",
      "type": "function"
    },
    {
      "inputs": [
        {
          "internalType": "address",
          "name": "",
          "type": "address"
        }
      ],
      "name": "lastWavedAt",
      "outputs": [
        {
          "internalType": "uint256",
          "name": "",
          "type": "uint256"
        }
      ],
      "stateMutability": "view",
      "type": "function"
    },
    {
      "inputs": [
        {
          "internalType": "string",
          "name": "_message",
          "type": "string"
        }
      ],
      "name": "wave",
      "outputs": [],
      "stateMutability": "nonpayable",
      "type": "function"
    }
  ],
  "bytecode": "0x60806040526200004f6040518060400160405280600e81526020017f4275656e6173206e6f63686573210000000000000000000000000000000000008152506200005560201b620009931760201c565b620001e9565b620000f5816040516024016200006c919062000162565b6040516020818303038152906040527f41304fac000000000000000000000000000000000000000000000000000000007bffffffffffffffffffffffffffffffffffffffffffffffffffffffff19166020820180517bffffffffffffffffffffffffffffffffffffffffffffffffffffffff8381831617835250505050620000f860201b60201c565b50565b60008151905060006a636f6e736f6c652e6c6f679050602083016000808483855afa5050505050565b60006200012e8262000186565b6200013a818562000191565b93506200014c818560208601620001a2565b6200015781620001d8565b840191505092915050565b600060208201905081810360008301526200017e818462000121565b905092915050565b600081519050919050565b600082825260208201905092915050565b60005b83811015620001c2578082015181840152602081019050620001a5565b83811115620001d2576000848401525b50505050565b6000601f19601f8301169050919050565b61172e80620001f96000396000f3fe608060405234801561001057600080fd5b50600436106100625760003560e01c8063449d46c0146100675780638132efef1461008357806387ec9b8d146100a15780639a2cdc08146100bf578063a42a4663146100dd578063bd43a9081461010d575b600080fd5b610081600480360381019061007c9190610da8565b61012b565b005b61008b610760565b6040516100989190611214565b60405180910390f35b6100a96107a7565b6040516100b691906111de565b60405180910390f35b6100c7610821565b6040516100d49190611214565b60405180910390f35b6100f760048036038101906100f29190610d7f565b61082a565b6040516101049190611214565b60405180910390f35b610115610842565b6040516101229190611087565b60405180910390f35b42601e600660003373ffffffffffffffffffffffffffffffffffffffff1673ffffffffffffffffffffffffffffffffffffffff168152602001908152602001600020546101789190611326565b106101b8576040517f08c379a00000000000000000000000000000000000000000000000000000000081526004016101af906111be565b60405180910390fd5b42600660003373ffffffffffffffffffffffffffffffffffffffff1673ffffffffffffffffffffffffffffffffffffffff16815260200190815260200160002081905550600160008082825461020e9190611326565b9250508190555060018060003373ffffffffffffffffffffffffffffffffffffffff1673ffffffffffffffffffffffffffffffffffffffff16815260200190815260200160002060008282546102649190611326565b925050819055506000600160003373ffffffffffffffffffffffffffffffffffffffff1673ffffffffffffffffffffffffffffffffffffffff1681526020019081526020016000205490506000600360010154148061032457503373ffffffffffffffffffffffffffffffffffffffff16600360000160009054906101000a900473ffffffffffffffffffffffffffffffffffffffff1673ffffffffffffffffffffffffffffffffffffffff1614158015610323575080600360010154105b5b156103ee5733600360000160006101000a81548173ffffffffffffffffffffffffffffffffffffffff021916908373ffffffffffffffffffffffffffffffffffffffff160217905550806003600101819055506103b56040518060400160405280600e81526020017f4e657720746f7020776176657221000000000000000000000000000000000000815250610993565b7f9b2908618ae94b0618ee744ba3117a9e1c17db3592f444110441ca02870cffa360036040516103e591906111f9565b60405180910390a15b61048b6040518060600160405280602b81526020016116ce602b913933836001851461044f576040518060400160405280600581526020017f74696d6573000000000000000000000000000000000000000000000000000000815250610486565b6040518060400160405280600481526020017f74696d65000000000000000000000000000000000000000000000000000000008152505b610a2c565b600260405180606001604052803373ffffffffffffffffffffffffffffffffffffffff16815260200184815260200142815250908060018154018082558091505060019003906000526020600020906003020160009091909190915060008201518160000160006101000a81548173ffffffffffffffffffffffffffffffffffffffff021916908373ffffffffffffffffffffffffffffffffffffffff160217905550602082015181600101908051906020019061054a929190610c2f565b5060408201518160020155505060006064600554424461056a9190611326565b6105749190611326565b61057e91906114bb565b90506105bf6040518060400160405280601681526020017f52616e646f6d20232067656e6572617465643a2025730000000000000000000081525082610ace565b80600581905550603281101561070b5761060e6040518060400160405280600781526020017f257320776f6e210000000000000000000000000000000000000000000000000081525033610b6a565b6000655af3107a400090504781111561065c576040517f08c379a00000000000000000000000000000000000000000000000000000000081526004016106539061117e565b60405180910390fd5b60003373ffffffffffffffffffffffffffffffffffffffff168260405161068290611072565b60006040518083038185875af1925050503d80600081146106bf576040519150601f19603f3d011682016040523d82523d6000602084013e6106c4565b606091505b5050905080610708576040517f08c379a00000000000000000000000000000000000000000000000000000000081526004016106ff9061119e565b60405180910390fd5b50505b3373ffffffffffffffffffffffffffffffffffffffff167f5f7e16dc676677766a70e9c5628aa6c54ddb8b6e5188e2ae1e1f17f1ffbea716428560405161075392919061122f565b60405180910390a2505050565b6000600660003373ffffffffffffffffffffffffffffffffffffffff1673ffffffffffffffffffffffffffffffffffffffff16815260200190815260200160002054905090565b6107af610cb5565b60036040518060400160405290816000820160009054906101000a900473ffffffffffffffffffffffffffffffffffffffff1673ffffffffffffffffffffffffffffffffffffffff1673ffffffffffffffffffffffffffffffffffffffff168152602001600182015481525050905090565b60008054905090565b60066020528060005260406000206000915090505481565b60606002805480602002602001604051908101604052809291908181526020016000905b8282101561098a57838290600052602060002090600302016040518060600160405290816000820160009054906101000a900473ffffffffffffffffffffffffffffffffffffffff1673ffffffffffffffffffffffffffffffffffffffff1673ffffffffffffffffffffffffffffffffffffffff1681526020016001820180546108ef90611424565b80601f016020809104026020016040519081016040528092919081815260200182805461091b90611424565b80156109685780601f1061093d57610100808354040283529160200191610968565b820191906000526020600020905b81548152906001019060200180831161094b57829003601f168201915b5050505050815260200160028201548152505081526020019060010190610866565b50505050905090565b610a29816040516024016109a791906110a9565b6040516020818303038152906040527f41304fac000000000000000000000000000000000000000000000000000000007bffffffffffffffffffffffffffffffffffffffffffffffffffffffff19166020820180517bffffffffffffffffffffffffffffffffffffffffffffffffffffffff8381831617835250505050610c06565b50565b610ac884848484604051602401610a4694939291906110fb565b6040516020818303038152906040527f4c55f234000000000000000000000000000000000000000000000000000000007bffffffffffffffffffffffffffffffffffffffffffffffffffffffff19166020820180517bffffffffffffffffffffffffffffffffffffffffffffffffffffffff8381831617835250505050610c06565b50505050565b610b668282604051602401610ae492919061114e565b6040516020818303038152906040527f9710a9d0000000000000000000000000000000000000000000000000000000007bffffffffffffffffffffffffffffffffffffffffffffffffffffffff19166020820180517bffffffffffffffffffffffffffffffffffffffffffffffffffffffff8381831617835250505050610c06565b5050565b610c028282604051602401610b809291906110cb565b6040516020818303038152906040527f319af333000000000000000000000000000000000000000000000000000000007bffffffffffffffffffffffffffffffffffffffffffffffffffffffff19166020820180517bffffffffffffffffffffffffffffffffffffffffffffffffffffffff8381831617835250505050610c06565b5050565b60008151905060006a636f6e736f6c652e6c6f679050602083016000808483855afa5050505050565b828054610c3b90611424565b90600052602060002090601f016020900481019282610c5d5760008555610ca4565b82601f10610c7657805160ff1916838001178555610ca4565b82800160010185558215610ca4579182015b82811115610ca3578251825591602001919060010190610c88565b5b509050610cb19190610ce5565b5090565b6040518060400160405280600073ffffffffffffffffffffffffffffffffffffffff168152602001600081525090565b5b80821115610cfe576000816000905550600101610ce6565b5090565b6000610d15610d1084611284565b61125f565b905082815260208101848484011115610d2d57600080fd5b610d388482856113e2565b509392505050565b600081359050610d4f816116b6565b92915050565b600082601f830112610d6657600080fd5b8135610d76848260208601610d02565b91505092915050565b600060208284031215610d9157600080fd5b6000610d9f84828501610d40565b91505092915050565b600060208284031215610dba57600080fd5b600082013567ffffffffffffffff811115610dd457600080fd5b610de084828501610d55565b91505092915050565b6000610df58383611004565b905092915050565b610e06816113a6565b82525050565b610e15816113a6565b82525050565b6000610e26826112c5565b610e3081856112e8565b935083602082028501610e42856112b5565b8060005b85811015610e7e5784840389528151610e5f8582610de9565b9450610e6a836112db565b925060208a01995050600181019050610e46565b50829750879550505050505092915050565b6000610e9b826112d0565b610ea58185611304565b9350610eb58185602086016113f1565b610ebe816115a8565b840191505092915050565b6000610ed4826112d0565b610ede8185611315565b9350610eee8185602086016113f1565b610ef7816115a8565b840191505092915050565b6000610f0f603483611315565b9150610f1a826115c6565b604082019050919050565b6000610f32602783611315565b9150610f3d82611615565b604082019050919050565b6000610f55602983611315565b9150610f6082611664565b604082019050919050565b6000610f786000836112f9565b9150610f83826116b3565b600082019050919050565b604082016000820151610fa46000850182610dfd565b506020820151610fb76020850182611054565b50505050565b604082016000808301549050610fd281611456565b610fdf6000860182610dfd565b5060018301549050610ff081611470565b610ffd6020860182611054565b5050505050565b600060608301600083015161101c6000860182610dfd565b50602083015184820360208601526110348282610e90565b91505060408301516110496040860182611054565b508091505092915050565b61105d816113d8565b82525050565b61106c816113d8565b82525050565b600061107d82610f6b565b9150819050919050565b600060208201905081810360008301526110a18184610e1b565b905092915050565b600060208201905081810360008301526110c38184610ec9565b905092915050565b600060408201905081810360008301526110e58185610ec9565b90506110f46020830184610e0c565b9392505050565b600060808201905081810360008301526111158187610ec9565b90506111246020830186610e0c565b6111316040830185611063565b81810360608301526111438184610ec9565b905095945050505050565b600060408201905081810360008301526111688185610ec9565b90506111776020830184611063565b9392505050565b6000602082019050818103600083015261119781610f02565b9050919050565b600060208201905081810360008301526111b781610f25565b9050919050565b600060208201905081810360008301526111d781610f48565b9050919050565b60006040820190506111f36000830184610f8e565b92915050565b600060408201905061120e6000830184610fbd565b92915050565b60006020820190506112296000830184611063565b92915050565b60006040820190506112446000830185611063565b81810360208301526112568184610ec9565b90509392505050565b600061126961127a565b9050611275828261148a565b919050565b6000604051905090565b600067ffffffffffffffff82111561129f5761129e611579565b5b6112a8826115a8565b9050602081019050919050565b6000819050602082019050919050565b600081519050919050565b600081519050919050565b6000602082019050919050565b600082825260208201905092915050565b600081905092915050565b600082825260208201905092915050565b600082825260208201905092915050565b6000611331826113d8565b915061133c836113d8565b9250827fffffffffffffffffffffffffffffffffffffffffffffffffffffffffffffffff03821115611371576113706114ec565b5b828201905092915050565b600073ffffffffffffffffffffffffffffffffffffffff82169050919050565b6000819050919050565b60006113b1826113b8565b9050919050565b600073ffffffffffffffffffffffffffffffffffffffff82169050919050565b6000819050919050565b82818337600083830152505050565b60005b8381101561140f5780820151818401526020810190506113f4565b8381111561141e576000848401525b50505050565b6000600282049050600182168061143c57607f821691505b602082108114156114505761144f61154a565b5b50919050565b6000611469611464836115b9565b61137c565b9050919050565b600061148361147e836115b9565b61139c565b9050919050565b611493826115a8565b810181811067ffffffffffffffff821117156114b2576114b1611579565b5b80604052505050565b60006114c6826113d8565b91506114d1836113d8565b9250826114e1576114e061151b565b5b828206905092915050565b7f4e487b7100000000000000000000000000000000000000000000000000000000600052601160045260246000fd5b7f4e487b7100000000000000000000000000000000000000000000000000000000600052601260045260246000fd5b7f4e487b7100000000000000000000000000000000000000000000000000000000600052602260045260246000fd5b7f4e487b7100000000000000000000000000000000000000000000000000000000600052604160045260246000fd5b6000601f19601f8301169050919050565b60008160001c9050919050565b7f547279696e6720746f207769746864726177206d6f7265206d6f6e657920746860008201527f616e2074686520636f6e7472616374206861732e000000000000000000000000602082015250565b7f4661696c656420746f207769746864726177206d6f6e65792066726f6d20636f60008201527f6e74726163742e00000000000000000000000000000000000000000000000000602082015250565b7f4d7573742077616974203330207365636f6e6473206265666f7265207761766960008201527f6e6720616761696e2e0000000000000000000000000000000000000000000000602082015250565b50565b6116bf816113a6565b81146116ca57600080fd5b5056fe25732068617320776176656421205468657920686176652077616976656420257320257320736f20666172a2646970667358221220b457d26044dc47aef3a4c394e7fb596ade1d3ef13c29356c0297e79e9c951d3f64736f6c63430008040033",
  "linkReferences": {},
  "deployedLinkReferences": {}
}